:020000040800F2
:1000000000500020AD050008210500082705000864
:100010002D05000833050008390500080000000020
:100020000000000000000000000000003F05000884
:100030004B05000800000000570500086505000892
:10004000F5050008F5050008F5050008F5050008A8
:10005000F5050008F5050008F5050008F505000898
:10006000F5050008F5050008F5050008F505000888
:10007000F5050008F5050008F5050008F505000878
:10008000F5050008F5050008F5050008F505000868
:10009000F5050008F5050008F5050008F505000858
:1000A000F5050008F5050008F5050008F505000848
:1000B000F5050008F5050008F5050008F505000838
:1000C000F5050008F5050008F5050008F505000828
:1000D000F5050008F5050008F5050008F505000818
:1000E000F5050008F5050008F5050008000000000A
:1000F0000000000000000000000000000000000000
:0C01000000000000000000005FF808F1A3
:10010C0010B5054C237833B9044B13B10448AFF345
:10011C0000800123237010BD0400002000000000AB
:10012C00AC06000808B5034B1BB103490348AFF3F9
:10013C00008008BD0000000008000020AC0600088C
:10014C0080B485B000AF78607B6803F00703FB6078
:10015C000C4BDB68BB60BA684FF6FF031340BB6007
:10016C00FB681A02BB68134343F0BF6343F40033CC
:10017C00BB60044ABB68D36000BF1437BD4680BC6B
:10018C00704700BF00ED00E080B400AF044BDB68AB
:10019C001B0A03F007031846BD4680BC704700BF1E
:1001AC0000ED00E080B483B000AF03463960FB7112
:1001BC0097F90730002B0ADB3B68DAB20C4997F948
:1001CC0007301201D2B20B4483F800230AE03B68DB
:1001DC00DAB20849FB7903F00F03043B1201D2B2E7
:1001EC000B441A7600BF0C37BD4680BC704700BF6D
:1001FC0000E100E000ED00E080B489B000AFF860F1
:10020C00B9607A60FB6803F00703FB61FB69C3F11B
:10021C000703042B28BF0423BB61FB690433062BA3
:10022C0002D9FB69033B00E000237B614FF0FF32F6
:10023C00BB6902FA03F3DA43BB681A407B699A4044
:10024C004FF0FF317B6901FA03F3D9437B680B4014
:10025C00134318462437BD4680BC704780B400AFAA
:10026C00044B1B68034A43F00103136000BFBD46F7
:10027C0080BC70470010024080B400AF064B1B6876
:10028C0003F00203022B0CBF01230023DBB2184640
:10029C00BD4680BC704700BF0010024080B483B0E4
:1002AC0000AF7860064B1B6823F0F8027B68DB001C
:1002BC00034913430B6000BF0C37BD4680BC70472D
:1002CC000010024080B483B000AF7860064B5B68CE
:1002DC0023F0030204497B6813434B6000BF0C37C7
:1002EC00BD4680BC704700BF0010024080B400AF18
:1002FC00034B5B6803F00C031846BD4680BC70478B
:10030C000010024080B483B000AF7860064B5B688D
:10031C0023F0F00204497B6813434B6000BF0C3799
:10032C00BD4680BC704700BF0010024080B483B053
:10033C0000AF7860064B5B6823F4E06204497B688D
:10034C0013434B6000BF0C37BD4680BC704700BFE9
:10035C000010024080B483B000AF7860064B5B683D
:10036C0023F4605204497B6813434B6000BF0C3785
:10037C00BD4680BC704700BF0010024080B485B001
:10038C0000AF7860084BDA6907497B681343CB618F
:10039C00054BDA697B681340FB60FB6800BF1437C0
:1003AC00BD4680BC704700BF0010024080B485B0D1
:1003BC0000AF7860084B9A6907497B6813438B61DF
:1003CC00054B9A697B681340FB60FB6800BF1437D0
:1003DC00BD4680BC704700BF0010024080B483B0A3
:1003EC0000AF7860064B1B6823F0070204497B685A
:1003FC0013430B6000BF0C37BD4680BC704700BF79
:10040C000020024080B400AF034B1B6803F00703CD
:10041C001846BD4680BC70470020024080B500AF36
:10042C000120FFF7C3FF4FF08050FFF7A7FF032019
:10043C00FFF786FEFFF7A8FE034600220F211846A1
:10044C00FFF7DAFE034619464FF0FF30FFF7AAFE1E
:10045C0000F02EF8134B9B69124A43F0FC03936196
:10046C00114B4FF033325A600F4B4FF033321A604E
:10047C000D4BDB680C4A43F40053D3600B4B1B68E9
:10048C000A4A43F004031360084B1B68074A43F005
:10049C0001031360054B1B68044A43F0020313600D
:1004AC00FEE700BF001002400010014010E000E029
:1004BC0080B500AF0020FFF791FF00BFFFF7A2FF50
:1004CC000346002BFAD11020FFF7E8FEFFF7C6FE1B
:1004DC0000BFFFF7D1FE0346012BFAD10020FFF736
:1004EC0011FF0020FFF722FF0020FFF733FF002051
:1004FC00FFF7E8FE00BFFFF7F9FE0346002BFAD129
:10050C00034800F08DF8024800F098F800BF80BD59
:10051C0000127A0080B400AFFEE780B400AFFEE7B3
:10052C0080B400AFFEE780B400AFFEE780B400AF4C
:10053C00FEE780B400AF00BFBD4680BC704780B4FE
:10054C0000AF00BFBD4680BC704780B400AF00BF99
:10055C00BD4680BC7047000080B400AF0B4B1B68DD
:10056C0001330A4A1360094B1B68B3F57A7F08D133
:10057C00074BDB68064A83F40053D360034B00221D
:10058C001A6000BFBD4680BC704700BF2000002031
:10059C000010014080B400AF00BFBD4680BC704766
:1005AC00FFF7F8FF0B480C490C4A002302E0D45823
:1005BC00C4500433C4188C42F9D3094A094C0023A3
:1005CC0001E013600432A242FBD300F045F8FFF7C0
:1005DC0025FF70470000002004000020CC06000816
:1005EC000400002024000020FEE7000080B483B04B
:1005FC0000AF786039607A683B68B2FBF3F3074A66
:10060C00013B5360054B00229A60044B05221A6093
:10061C0000BF0C37BD4680BC704700BF10E000E047
:10062C0080B582B000AF78604FF47A717868FFF7CC
:10063C00DDFF00BF0837BD4680BD000080B483B02D
:10064C0000AF7860034A7B68136000BF0C37BD466F
:10065C0080BC70470000002070B500260C4D0D4C7E
:10066C00641BA410A64209D100F01AF800260A4D0A
:10067C000A4C641BA410A64205D170BD55F8043B6E
:10068C0098470136EEE755F8043B98470136F2E7F8
:10069C00C4060008C4060008C4060008C806000802
:1006AC00F8B500BFF8BC08BC9E467047F8B500BF53
:0806BC00F8BC08BC9E46704723
:0406C40031010008F8
:0406C8000D01000818
:0406CC000024F40012
:04000005080005AD3D
:00000001FF
